:020000004F2A85
:10000800FF00030E83018316B9000A08B8008A01AD
:100018008B1C122801308312EE008B100B1D1B283D
:100028008312EB0A0319EC0A0B11063081008316C0
:0E00380038088A00390E8300FF0E7F0E090083
:0400460000000800AE
:10004A00083083120313FC002330FD00FD0B2B281C
:06005A00FC0B2B2808003E
:10006000103083120313FD00FD0B3428000008003C
:1000700083160313C91B3F28831287134128831259
:1000800087178316491B47288312071349288312B1
:1000900007178316C91A4F28831287125128831213
:1000A00087168316491A5728831207125928831274
:1000B0000716831637185F288312071561288312E5
:1000C00007118715232087118316C9196A288312FF
:1000D00087136C2883128717831649197228831295
:1000E00007137428831207178316C9187A288312F6
:1000F00087127C2883128716831649188228831258
:100100000712842883120716831637188A28831249
:1001100007158C2883120711871523208711831652
:0C012000371C942825209528302008006A
:0E012C00033083120313FD00FD0B9A28080018
:10013A0083160313C401C601C7011030C800043076
:10014A0047020318D228F030831286008030F0006C
:10015A007008063E840083164809F0007008800083
:10016A00232023200F3083120605F000700883161F
:10017A00C50070080319CC284608C40045080319AD
:10018A00CA28C50CC513C40AC3280430C700C80D41
:10019A0048100430C607C70AA4284408F00008001B
:0E01AA00831603132C088A002B08820008001D
:1001B80083120313F801F9011030FC00710DF80DDA
:1001C800F90D7408F8027508031C750FF902031875
:1001D800F4287408F80775080318750FF907031051
:0A01E800F00DF10DFC0BE2280800F9
:1001F2008316031337104408C900382083163714B6
:020202000800F2
:1002040083160313C0010630400203181029400866
:100214003E07840030308000C00A052940083E07AC
:100224008400800100303D06031D1A2900303C067D
:10023400031D1D297029BF0180303D06F000803068
:100244007002031D272900303C02031834290130B1
:10025400BF003C08003CC1003D08031C013EC20134
:10026400C20238293C08C1003D08C2000530C00064
:1002740000304206031D4029003041060319692954
:1002840040083E07C3000A30F4000030F50041087E
:10029400F0004208F100DC207808F0007908F10051
:1002A4003030F00783164308840070088000C003D0
:1002B4000A30F4000030F5004108F0004208F10073
:1002C400DC2070088316C1007108C2003A293F0877
:0E02D400031970293E0884002D3080000800B8
:1002E2009D207008BC000F3083120605F000031930
:0E02F2007C299620742983163C08F000080031
:10030000831603133C08F2007208F100F20A3D085C
:10031000F000BD0A700884000008F0007108840035
:100320007008800071088400000803199829842946
:060330003C08F00008008B
:100336008B168B170B16831603138112811101106E
:0C034600811401110630831281000800B0
:10035200D5208A110A128000840AAB0A0319AC0A5A
:08036200F003031DA9290800A6
:10036A0083160313871107110712871207138713BE
:10037A008312871107118713071387120712252083
:10038A002520252087160716871523208711252063
:10039A0087152320871125208715232087112520DB
:1003AA0007128715232087112520871523208711F7
:1003BA008712871787152320871125208713071689
:1003CA0087152320871107128715232087112520D7
:1003DA0087152320871107168715232087112520C3
:1003EA0007128715232087118717071787160716FD
:0E03FA0087152320871125208316371408004D
:10040800162A803083160313BC00292AC030BC008A
:10041800292A9430BC00292AD430BC00292A8030EB
:10042800BC00292A831603133C08013A0319052A3C
:100438003C08023A03190A2A3C08033A03190D2A10
:100448003C08043A0319102A132A3D03F0003C081B
:10045800F0077008BC007008C900382083163710F0
:10046800BF013F083E07840000080319432A3F08DC
:100478003E0784000008C400F920BF0A352A371453
:0204880008006A
:10048A00803083120313F0007008063E8400FF30A8
:04049A0080000800D6
:10049E00322483160313081083120810EF0145222D
:1004AE00B5210130C90038200C308316C900382020
:1004BE0001308316BC000130BD002030BE00042286
:1004CE000230BC000130BD003330BE000422831662
:1004DE00AD0171217008AD0070080319702AA72AAA
:1004EE003130AD00E72A3230AD00E72A3330AD00AF
:1004FE00E72A4130AD00E72A3430AD00E72A353027
:10050E00AD00E72A3630AD00E72A4230AD00E72ACB
:10051E003730AD00E72A3830AD00E72A3930AD006C
:10052E00E72A4330AD00E72A2A30AD00E72A303003
:10053E00AD00E72A2330AD00E72A4430AD00E72AAC
:10054E002D08013A0319772A2D08023A03197A2A3F
:10055E002D08033A03197D2A2D08043A0319802A1F
:10056E002D08053A0319832A2D08063A0319862AFF
:10057E002D08073A0319892A2D08083A03198C2ADF
:10058E002D08093A03198F2A2D080A3A0319922ABF
:10059E002D080B3A0319952A2D080C3A0319982A9F
:1005AE002D080D3A03199B2A2D080E3A03199E2A7F
:1005BE002D080F3A0319A12A2D08103A0319A42A5F
:1005CE002D08C400F920831234082F3E84008316B0
:1005DE002D0880008312B40A0319B50A00303506BF
:1005EE00031DFB2A04303406031DD22B8316BA01D9
:1005FE00BB0180303B06F00080307002031D092BDA
:10060E0004303A020318202B3A082F3E84000008CB
:10061E00F1003A0883126A07840071080006031974
:10062E001B2B0130E900202B8316BA0A0319BB0AD3
:10063E00002B83126908013A0319272B0230E900B7
:10064E006908013A031D532B02308316BC0001309A
:10065E00BD006330BE0004221530FB004B30FC00A1
:10066E00BE30FD00FD0B392BFC0B392BFB0B392B50
:10067E0000000230BC000130BD00A030BE000422DC
:10068E000230BC000130BD006D30BE00042283126A
:10069E00B401B501E901D22B6908023A031DD22B30
:1006AE00EB01EC018316B501B6010230BC0001303E
:1006BE00BD004630BE0004220630FB001330FC00A5
:1006CE00AD30FD00FD0B692BFC0B692BFB0B692B71
:1006DE00000000000130C90038209B21EB01EC0125
:1006EE008316B501B6018312081401308316BC00BF
:1006FE000130BD003630BE0004228316803036062F
:10070E00F00080307002031D8E2B0430350203186A
:10071E00AE2B83126C08013A031D972BF4306B0637
:10072E00031DAD2BEB01EC018316B50A0319B60AB6
:10073E003508BC003608BD00AE30BE0002210230C6
:10074E00BC000130BD00AE30BE000422842B8312EB
:10075E000810AE308316BC005C30BD008021013025
:10076E00C900382001308316BC000130BD004D3069
:10077E00BE0004220230BC000130BD004C30BE0071
:10078E0004228312B401B501E9018316B501B60145
:0A079E008312EB01EC016E2AD32B4D
:10086400203084004E3083120313F000D9308316F5
:10087400AB000330AC00A921A03084000630831201
:10088400F00027308316AB000430AC00A9216E3091
:10089400840001308312F00003308316AB00003073
:1008A400AC00A921A630840005308312F0002D305D
:0C08B4008316AB000430AC00A921080042
:020006000034C4
:1007B20045346E34743465347234203450346134C8
:0E07C2007334733477346F347234643400341B
:0807D000003400340034003451
:0207D8000034EB
:0407DA0000340034B3
:1007DE004D346F3474346F34723420344F346E347D
:1007EE002034533469346E34633465343A3400340F
:0C07FE00523469346734683474340034B9
:02080A000034B8
:10080C0045346E347434653472342034503461346D
:0E081C007334733477346F34723464340034C0
:0E082A00303430343034303430343034003434
:0C083800573472346F346E34673400346F
:0208440000347E
:02084600A634D6
:040848000034003444
:02084C00003476
:0C084E00203420342034203420340034C6
:0A085A0034343534363437340034BA
:02400E004A2F37
:00000001FF
